{
  "_format": "hh-sol-artifact-1",
  "contractName": "Payment",
  "sourceName": "contracts/Payment.sol",
  "abi": [
    {
      "anonymous": false,
      "inputs": [
        {
          "indexed": true,
          "internalType": "address",
          "name": "sender",
          "type": "address"
        },
        {
          "indexed": true,
          "internalType": "address",
          "name": "receiver",
          "type": "address"
        },
        {
          "indexed": false,
          "internalType": "uint256",
          "name": "amount",
          "type": "uint256"
        }
      ],
      "name": "PaymentSent",
      "type": "event"
    },
    {
      "inputs": [
        {
          "internalType": "address payable",
          "name": "receiver",
          "type": "address"
        }
      ],
      "name": "sendPayment",
      "outputs": [],
      "stateMutability": "payable",
      "type": "function"
    }
  ],
  "bytecode": "0x6080604052348015600f57600080fd5b506101c28061001f6000396000f3fe60806040526004361061001e5760003560e01c80638a7644a814610023575b600080fd5b61003661003136600461015c565b610038565b005b6000341161008d5760405162461bcd60e51b815260206004820181905260248201527f416d6f756e74206d7573742062652067726561746572207468616e207a65726f60448201526064015b60405180910390fd5b6001600160a01b0381166100e35760405162461bcd60e51b815260206004820152601860248201527f496e76616c6964207265636569766572206164647265737300000000000000006044820152606401610084565b6040516001600160a01b038216903480156108fc02916000818181858888f19350505050158015610118573d6000803e3d6000fd5b506040513481526001600160a01b0382169033907fd52bd61f7c422d441e024604f4517878fd3305d6acf0fe37baef23ed21af6bc99060200160405180910390a350565b60006020828403121561016e57600080fd5b81356001600160a01b038116811461018557600080fd5b939250505056fea264697066735822122055f4ae2042e7bf5bb43325fc6205f74eabbce8c4ec329dc2c6326bd64b5f7d3d64736f6c634300081c0033",
  "linkReferences": {},
  "deployedLinkReferences": {}
}